S00C0000546573742E7372656378
S11300000C942A000C9447000C9447000C9447006D
S11300100C9447000C9447000C9447000C94470040
S11300200C9447000C9447000C9447000C94470030
S11300300C9447000C9447000C9447000C94470020
S11300400C9447000C9447000C9447000C94470010
S11300500C94470011241FBECFE5D8E0DEBFCDBF0E
S113006010E0A0E6B0E0E6EEFCE002C005900D92E0
S1130070A036B107D9F710E0A0E6B0E001C01D92A8
S1130080A036B107E1F70E9489050C9471060C941F
S113009000001ABA17BA14BA11BA0895843409F4CC
S11300A071C0853448F4823499F1833408F04DC02A
S11300B0813409F083C00FC0823651F1833620F4B5
S11300C0813609F07BC007C0833609F43EC084360C
S11300D009F074C057C0413069F42AB381E090E05C
S11300E0AC0102C0440F551F6A95E2F7BA01622BB6
S11300F06ABB08952AB381E090E0AC0102C0440FCA
S1130100551F6A95E2F7BA01609562236ABB0895A8
S1130110413069F427B381E090E0AC0102C0440FA0
S1130120551F6A95E2F7BA01622B67BB089527B39E
S113013081E090E0AC0102C0440F551F6A95E2F7DC
S1130140BA016095622367BB0895413069F424B312
S113015081E090E0AC0102C0440F551F6A95E2F7BC
S1130160BA01622B64BB089524B381E090E0AC0132
S113017002C0440F551F6A95E2F7BA0160956223E5
S113018064BB0895413069F421B381E090E0AC018F
S113019002C0440F551F6A95E2F7BA01622B61BB96
S11301A0089521B381E090E0AC0102C0440F551FD3
S11301B06A95E2F7BA016095622361BB08958434BD
S11301C009F471C0853448F4823499F1833408F019
S11301D04DC0813409F083C00FC0823651F183369B
S11301E020F4813609F07BC007C0833609F43EC091
S11301F0843609F074C057C0413069F42BB381E0F0
S113020090E0AC0102C0440F551F6A95E2F7BA01B1
S1130210622B6BBB08952BB381E090E0AC0102C06C
S1130220440F551F6A95E2F7BA01609562236BBBD0
S11302300895413069F428B381E090E0AC0102C034
S1130240440F551F6A95E2F7BA01622B68BB089503
S113025028B381E090E0AC0102C0440F551F6A95B9
S1130260E2F7BA016095622368BB0895413069F4EE
S113027025B381E090E0AC0102C0440F551F6A959C
S1130280E2F7BA01622B65BB089525B381E090E0E3
S1130290AC0102C0440F551F6A95E2F7BA0160959C
S11302A0622365BB0895413069F422B381E090E094
S11302B0AC0102C0440F551F6A95E2F7BA01622BE4
S11302C062BB089522B381E090E0AC0102C0440F08
S11302D0551F6A95E2F7BA016095622362BB0895DF
S11302E0843409F454C0853440F4823441F18334B5
S11302F0D0F5813409F060C00EC0823601F1833636
S113030020F4813609F058C006C0833661F1843682
S113031009F052C03CC089B341E050E09A01062E76
S113032002C0220F331F0A94E2F7282329BB822F2D
S113033090E002C0959587956A95E2F7089586B393
S113034041E050E09A01062E02C0220F331F0A94A6
S1130350E2F7282326BB822F90E002C0959587956B
S11303606A95E2F7089586B341E050E09A01062EBB
S113037002C0220F331F0A94E2F7282326BB822FE0
S113038090E002C0959587956A95E2F7089520B3A9
S1130390E1E0F0E0AF01062E02C0440F551F0A94BD
S11303A0E2F7422340BB242F30E0C90102C09595F7
S11303B087956A95E2F7089580E00895843409F4F6
S11303C03DC0853440F48234F9F0833450F58134EF
S11303D009F040C00CC08236B9F0833618F4813677
S11303E0C9F505C08336E9F08436A1F527C02BB3DF
S11303F081E090E0AC0102C0440F551F6A95E2F71A
S1130400BA0162276BBB089528B381E090E0AC0188
S113041002C0440F551F6A95E2F7BA01622768BB10
S1130420089528B381E090E0AC0102C0440F551F49
S11304306A95E2F7BA01622768BB089522B381E0A6
S113044090E0AC0102C0440F551F6A95E2F7BA016F
S1130450622762BB08950895613019F58434F1F080
S1130460853438F48234A1F08334A8F48134B9F5A6
S11304700CC0823669F0833618F4813681F505C0E4
S1130480833649F0843659F509C08FEF8ABB089545
S11304908FEF87BB08958FEF84BB08958FEF81BBE7
S11304A008958434D9F0853438F4823499F083344F
S11304B098F48134A1F40CC0823661F0833618F4C8
S11304C0813669F405C0833639F0843641F406C0B8
S11304D01ABA089517BA089514BA089511BA089566
S11304E08434D9F0853438F4823499F0833498F420
S11304F08134A1F40CC0823661F0833618F481365D
S113050069F405C0833639F0843641F406C06BBB08
S1130510089568BB089565BB089562BB0895CF93A1
S1130520C82F6130A1F464E041E00E944E008C2F9A
S113053065E041E00E944E008C2F66E041E00E949D
S11305404E008C2F67E041E00E944E0013C064E02F
S113055040E00E944E008C2F65E040E00E944E0077
S11305608C2F66E040E00E944E008C2F67E040E054
S11305700E944E00CF9108956295607F843451F1BA
S1130580853438F48234C1F08334E8F4813441F59D
S11305900CC0823689F0833618F4813609F505C01B
S11305A0833689F08436E1F415C08BB38F708BBB2E
S11305B08BB3682B6BBB089588B38F7088BB88B3EB
S11305C0682B68BB089585B38F7085BB85B3682B92
S11305D065BB089582B38F7082BB82B3682B62BB04
S11305E00895CF93C82F6130A1F460E041E00E94E8
S11305F04E008C2F61E041E00E944E008C2F62E09F
S113060041E00E944E008C2F63E041E00E944E00C6
S113061013C060E040E00E944E008C2F61E040E097
S11306200E944E008C2F62E040E00E944E008C2F0E
S113063063E040E00E944E00CF9108956F708434CF
S113064051F1853438F48234C1F08334E8F48134D0
S113065041F50CC0823689F0833618F4813609F5E9
S113066005C0833689F08436E1F415C08BB3807FEE
S11306708BBB8BB3682B6BBB089588B3807F88BB1F
S113068088B3682B68BB089585B3807F85BB85B329
S1130690682B65BB089582B3807F82BB82B3682BCD
S11306A062BB0895CF93DF93D82FC62F41E00E94F9
S11306B0DF008FE99FE00197F1F700C000008D2F64
S11306C06C2F40E00E94DF00DF91CF910895AF923C
S11306D0CF92EF920F93CF93DF93C42FD22F813019
S11306E071F4842F6E2D0E9470028D2F602F40E0D4
S11306F00E94DF008C2D6A2D0E94520347C0613096
S113070019F56E2D62956F70842F0E94BC028D2F97
S1130710602F40E00E94DF008C2D6A2D0E9452035E
S11307208C2F6E2D0E94BC028D2F602F40E00E9402
S1130730DF008C2D6A2D0E9452038FEC97E0019705
S1130740F1F700C0000022C06E2D62956F70842FF7
S11307500E941E038D2F602F40E00E94DF008C2D2D
S11307606A2D0E9452038C2F6E2D0E94BC028D2F85
S1130770602F40E00E94DF008C2D6A2D0E945203FE
S11307808FEC97E00197F1F700C00000DF91CF9163
S11307900F91EF90CF90AF9008957F928F929F9298
S11307A0AF92BF92CF92DF92EF92FF920F931F937B
S11307B0CF93DF93CDB7DEB7182FF62E742E922E7B
S11307C08FEF91EEA4E081509040A040E1F700C08B
S11307D00000822F602F41E00E944E008E2D6C2D70
S11307E041E00E944E008A2D682D41E00E944E0097
S11307F0113009F050C0872D6FEF0E942C028E2D0E
S11308006C2D40E00E94DF00AFE2B5E71197F1F7ED
S113081000C0000081E06F2D472D292D0F2EF8E335
S1130820EF2EF02DCA2CA82C0E9467038FEC97E0C2
S11308300197F1F700C0000081E06F2D472D292DAD
S11308400F2EFEE0EF2EF02D0E946703AFECB7E011
S11308501197F1F700C0000081E06F2D472D292D7D
S1130860EE24E3940E9467038FE19EE40197F1F77D
S113087000C0000081E06F2D472D292D0F2EF6E0DA
S1130880EF2EF02D0E946703AFECB7E01197F1F75C
S113089000C00000B5C0B1E0FB1609F059C0872DB7
S11308A061E00E948F028E2D6C2D40E00E94DF00DB
S11308B0812F61E0472D292DEE246894E1F8CA2C9C
S11308C0A82C0E9467038FE295E70197F1F700C017
S11308D00000812F61E0472D292D0F2EF8E2EF2E25
S11308E0F02D0E946703AFECB7E01197F1F700C059
S11308F00000812F61E0472D292D0F2EFEE0EF2E01
S1130900F02D0E9467038FEC97E00197F1F700C088
S11309100000812F61E0472D292DEE24E3940E94ED
S11309206703AFE1BEE41197F1F700C00000812F27
S113093061E0472D292D0F2EF6E0EF2EF02D0E94B9
S113094067038FEC97E00197F1F700C0000058C0EF
S1130950872D61E00E94F1028E2D6C2D40E00E94F3
S1130960DF00812F6F2D472D292DEE246894E1F8A7
S1130970CA2CA82C0E946703AFE2B5E71197F1F7E0
S113098000C00000812F6F2D472D292D0F2EF8E276
S1130990EF2EF02D0E9467038FEC97E00197F1F79B
S11309A000C00000812F6F2D472D292D0F2EFEE052
S11309B0EF2EF02D0E946703AFECB7E01197F1F72B
S11309C000C00000812F6F2D472D292DEE24E394C4
S11309D00E9467038FE19EE40197F1F700C00000D5
S11309E0812F6F2D472D292D0F2EF6E0EF2EF02DA0
S11309F00E946703AFECB7E01197F1F700C0000065
S1130A00DF91CF911F910F91FF90EF90DF90CF90E6
S1130A10BF90AF909F908F907F900895AF92CF92A8
S1130A20EF920F93CF93DF93C42FD22F8130A1F491
S1130A30842F6A2D0E9470028D2F602F41E00E9446
S1130A40DF008E2D6C2D0E9452038FEC97E00197EE
S1130A50F1F700C0000047C0613019F56A2D6295B6
S1130A606F70842F0E94BC028D2F602F40E00E9483
S1130A70DF008E2D6C2D0E9452038C2F6A2D0E9454
S1130A80BC028D2F602F40E00E94DF008E2D6C2D64
S1130A900E9452038FEC97E00197F1F700C0000029
S1130AA022C06A2D62956F70842F0E941E038D2FC1
S1130AB0602F40E00E94DF008E2D6C2D0E945203B7
S1130AC08C2F6A2D0E94BC028D2F602F40E00E9463
S1130AD0DF008E2D6C2D0E9452038FEC97E001975E
S1130AE0F1F700C00000DF91CF910F91EF90CF900C
S1130AF0AF90089541E00E944E00089541E00E94A5
S1130B00DF00089540E00E94DF0008950E94DE01A6
S1130B10089581E490E060E070E00E947A0581E449
S1130B2090E061E070E00E947A0581E490E062E088
S1130B3070E00E947A05C0E0D3E0C0FF23C081E4E6
S1130B4090E061E070E00E94820581E490E062E060
S1130B5070E00E94820581E490E060E070E00E9411
S1130B607E058FEF94E3ACE081509040A040E1F724
S1130B7000C000008C2F6D2F0E946506923009F092
S1130B806DC052C081E490E060E070E00E94820594
S1130B908C2F6D2F0E946506923081F481E490E0E1
S1130BA061E070E00E947E058FEF94E3ACE0815039
S1130BB09040A040E1F700C0000085C081E490E0CF
S1130BC061E070E00E9482058C2F8370833081F491
S1130BD081E490E061E070E00E947E058FEF94E391
S1130BE0ACE081509040A040E1F700C000006BC031
S1130BF081E490E060E070E00E94820581E490E08E
S1130C0061E070E00E94820581E490E062E070E0BF
S1130C100E9482058FEF94E3ACE081509040A040A5
S1130C20E1F700C000004FC081E490E060E070E0B4
S1130C300E947E0581E490E061E070E00E947E0500
S1130C408FEF94E3ACE081509040A040E1F700C006
S1130C5000008C2F83708330B1F51AC08C2F837001
S1130C60833089F581E490E060E070E00E947E05C5
S1130C7081E490E062E070E00E947E058FEF94E3EF
S1130C80ACE081509040A040E1F700C000001BC0E0
S1130C9081E490E060E070E00E947E0581E490E0F1
S1130CA061E070E00E947E0581E490E062E070E023
S1130CB00E947E058FEF94E3ACE081509040A04009
S1130CC0E1F700C00000CF5F38CF991B79E004C082
S1130CD0991F961708F0961B881F7A95C9F7809577
S1090CE00895F894FFCF13
S9030000FC
